{
  "contractName": "UserStorage",
  "abi": [
    {
      "inputs": [
        {
          "internalType": "address",
          "name": "",
          "type": "address"
        }
      ],
      "name": "addresses",
      "outputs": [
        {
          "internalType": "uint256",
          "name": "",
          "type": "uint256"
        }
      ],
      "stateMutability": "view",
      "type": "function",
      "constant": true
    },
    {
      "inputs": [],
      "name": "controllerAddr",
      "outputs": [
        {
          "internalType": "address",
          "name": "",
          "type": "address"
        }
      ],
      "stateMutability": "view",
      "type": "function",
      "constant": true
    },
    {
      "inputs": [],
      "name": "ownerAddr",
      "outputs": [
        {
          "internalType": "address",
          "name": "",
          "type": "address"
        }
      ],
      "stateMutability": "view",
      "type": "function",
      "constant": true
    },
    {
      "inputs": [
        {
          "internalType": "uint256",
          "name": "",
          "type": "uint256"
        }
      ],
      "name": "profiles",
      "outputs": [
        {
          "internalType": "uint256",
          "name": "id",
          "type": "uint256"
        },
        {
          "internalType": "bytes32",
          "name": "username",
          "type": "bytes32"
        },
        {
          "internalType": "bytes32",
          "name": "firstName",
          "type": "bytes32"
        },
        {
          "internalType": "bytes32",
          "name": "lastName",
          "type": "bytes32"
        },
        {
          "internalType": "string",
          "name": "bio",
          "type": "string"
        },
        {
          "internalType": "string",
          "name": "gravatarEmail",
          "type": "string"
        },
        {
          "internalType": "string",
          "name": "profileHash",
          "type": "string"
        }
      ],
      "stateMutability": "view",
      "type": "function",
      "constant": true
    },
    {
      "inputs": [
        {
          "internalType": "address",
          "name": "_controllerAddr",
          "type": "address"
        }
      ],
      "name": "setControllerAddr",
      "outputs": [],
      "stateMutability": "nonpayable",
      "type": "function"
    },
    {
      "inputs": [
        {
          "internalType": "address",
          "name": "_newOwner",
          "type": "address"
        }
      ],
      "name": "transferOwnership",
      "outputs": [],
      "stateMutability": "nonpayable",
      "type": "function"
    },
    {
      "inputs": [
        {
          "internalType": "bytes32",
          "name": "",
          "type": "bytes32"
        }
      ],
      "name": "usernames",
      "outputs": [
        {
          "internalType": "uint256",
          "name": "",
          "type": "uint256"
        }
      ],
      "stateMutability": "view",
      "type": "function",
      "constant": true
    },
    {
      "inputs": [
        {
          "internalType": "address",
          "name": "_address",
          "type": "address"
        },
        {
          "internalType": "bytes32",
          "name": "_username",
          "type": "bytes32"
        },
        {
          "internalType": "bytes32",
          "name": "_firstName",
          "type": "bytes32"
        },
        {
          "internalType": "bytes32",
          "name": "_lastName",
          "type": "bytes32"
        },
        {
          "internalType": "string",
          "name": "_bio",
          "type": "string"
        },
        {
          "internalType": "string",
          "name": "_gravatarEmail",
          "type": "string"
        },
        {
          "internalType": "string",
          "name": "_profileHash",
          "type": "string"
        }
      ],
      "name": "createUser",
      "outputs": [
        {
          "internalType": "uint256",
          "name": "_newUserId",
          "type": "uint256"
        }
      ],
      "stateMutability": "nonpayable",
      "type": "function"
    }
  ],
  "bytecode": "0x6080604052600060055534801561001557600080fd5b50336000806101000a81548173ffffffffffffffffffffffffffffffffffffffff021916908373ffffffffffffffffffffffffffffffffffffffff160217905550610dfb806100656000396000f3fe608060405234801561001057600080fd5b50600436106100885760003560e01c8063c36fe3d61161005b578063c36fe3d614610127578063ec4d88d71461015d578063ee255c571461018d578063f2fde38b146101ab57610088565b80636981fa7d1461008d5780636ae2289c146100a957806382d38954146100d95780639c675eaa14610109575b600080fd5b6100a760048036038101906100a29190610850565b6101c7565b005b6100c360048036038101906100be91906109f9565b610263565b6040516100d09190610b08565b60405180910390f35b6100f360048036038101906100ee9190610850565b610413565b6040516101009190610b08565b60405180910390f35b61011161042b565b60405161011e9190610b32565b60405180910390f35b610141600480360381019061013c9190610b79565b61044f565b6040516101549796959493929190610c3d565b60405180910390f35b61017760048036038101906101729190610cc1565b610629565b6040516101849190610b08565b60405180910390f35b610195610641565b6040516101a29190610b32565b60405180910390f35b6101c560048036038101906101c09190610850565b610667565b005b60008054906101000a900473ffffffffffffffffffffffffffffffffffffffff1673ffffffffffffffffffffffffffffffffffffffff163373ffffffffffffffffffffffffffffffffffffffff161461021f57600080fd5b80600160006101000a81548173ffffffffffffffffffffffffffffffffffffffff021916908373ffffffffffffffffffffffffffffffffffffffff16021790555050565b6000600160009054906101000a900473ffffffffffffffffffffffffffffffffffffffff1673ffffffffffffffffffffffffffffffffffffffff163373ffffffffffffffffffffffffffffffffffffffff16146102bf57600080fd5b600560008154809291906102d290610d1d565b91905055506040518060e0016040528060055481526020018881526020018781526020018681526020018581526020018481526020018381525060026000600554815260200190815260200160002060008201518160000155602082015181600101556040820151816002015560608201518160030155608082015181600401908051906020019061036592919061073b565b5060a082015181600501908051906020019061038292919061073b565b5060c082015181600601908051906020019061039f92919061073b565b50905050600554600360008a73ffffffffffffffffffffffffffffffffffffffff1673ffffffffffffffffffffffffffffffffffffffff1681526020019081526020016000208190555060055460046000898152602001908152602001600020819055506005549050979650505050505050565b60036020528060005260406000206000915090505481565b60008054906101000a900473ffffffffffffffffffffffffffffffffffffffff1681565b600260205280600052604060002060009150905080600001549080600101549080600201549080600301549080600401805461048a90610d94565b80601f01602080910402602001604051908101604052809291908181526020018280546104b690610d94565b80156105035780601f106104d857610100808354040283529160200191610503565b820191906000526020600020905b8154815290600101906020018083116104e657829003601f168201915b50505050509080600501805461051890610d94565b80601f016020809104026020016040519081016040528092919081815260200182805461054490610d94565b80156105915780601f1061056657610100808354040283529160200191610591565b820191906000526020600020905b81548152906001019060200180831161057457829003601f168201915b5050505050908060060180546105a690610d94565b80601f01602080910402602001604051908101604052809291908181526020018280546105d290610d94565b801561061f5780601f106105f45761010080835404028352916020019161061f565b820191906000526020600020905b81548152906001019060200180831161060257829003601f168201915b5050505050905087565b60046020528060005260406000206000915090505481565b600160009054906101000a900473ffffffffffffffffffffffffffffffffffffffff1681565b60008054906101000a900473ffffffffffffffffffffffffffffffffffffffff1673ffffffffffffffffffffffffffffffffffffffff163373ffffffffffffffffffffffffffffffffffffffff16146106bf57600080fd5b600073ffffffffffffffffffffffffffffffffffffffff168173ffffffffffffffffffffffffffffffffffffffff16036106f857600080fd5b806000806101000a81548173ffffffffffffffffffffffffffffffffffffffff021916908373ffffffffffffffffffffffffffffffffffffffff16021790555050565b82805461074790610d94565b90600052602060002090601f01602090048101928261076957600085556107b0565b82601f1061078257805160ff19168380011785556107b0565b828001600101855582156107b0579182015b828111156107af578251825591602001919060010190610794565b5b5090506107bd91906107c1565b5090565b5b808211156107da5760008160009055506001016107c2565b5090565b6000604051905090565b600080fd5b600080fd5b600073ffffffffffffffffffffffffffffffffffffffff82169050919050565b600061081d826107f2565b9050919050565b61082d81610812565b811461083857600080fd5b50565b60008135905061084a81610824565b92915050565b600060208284031215610866576108656107e8565b5b60006108748482850161083b565b91505092915050565b6000819050919050565b6108908161087d565b811461089b57600080fd5b50565b6000813590506108ad81610887565b92915050565b600080fd5b600080fd5b6000601f19601f8301169050919050565b7f4e487b7100000000000000000000000000000000000000000000000000000000600052604160045260246000fd5b610906826108bd565b810181811067ffffffffffffffff82111715610925576109246108ce565b5b80604052505050565b60006109386107de565b905061094482826108fd565b919050565b600067ffffffffffffffff821115610964576109636108ce565b5b61096d826108bd565b9050602081019050919050565b82818337600083830152505050565b600061099c61099784610949565b61092e565b9050828152602081018484840111156109b8576109b76108b8565b5b6109c384828561097a565b509392505050565b600082601f8301126109e0576109df6108b3565b5b81356109f0848260208601610989565b91505092915050565b600080600080600080600060e0888a031215610a1857610a176107e8565b5b6000610a268a828b0161083b565b9750506020610a378a828b0161089e565b9650506040610a488a828b0161089e565b9550506060610a598a828b0161089e565b945050608088013567ffffffffffffffff811115610a7a57610a796107ed565b5b610a868a828b016109cb565b93505060a088013567ffffffffffffffff811115610aa757610aa66107ed565b5b610ab38a828b016109cb565b92505060c088013567ffffffffffffffff811115610ad457610ad36107ed565b5b610ae08a828b016109cb565b91505092959891949750929550565b6000819050919050565b610b0281610aef565b82525050565b6000602082019050610b1d6000830184610af9565b92915050565b610b2c81610812565b82525050565b6000602082019050610b476000830184610b23565b92915050565b610b5681610aef565b8114610b6157600080fd5b50565b600081359050610b7381610b4d565b92915050565b600060208284031215610b8f57610b8e6107e8565b5b6000610b9d84828501610b64565b91505092915050565b610baf8161087d565b82525050565b600081519050919050565b600082825260208201905092915050565b60005b83811015610bef578082015181840152602081019050610bd4565b83811115610bfe576000848401525b50505050565b6000610c0f82610bb5565b610c198185610bc0565b9350610c29818560208601610bd1565b610c32816108bd565b840191505092915050565b600060e082019050610c52600083018a610af9565b610c5f6020830189610ba6565b610c6c6040830188610ba6565b610c796060830187610ba6565b8181036080830152610c8b8186610c04565b905081810360a0830152610c9f8185610c04565b905081810360c0830152610cb38184610c04565b905098975050505050505050565b600060208284031215610cd757610cd66107e8565b5b6000610ce58482850161089e565b91505092915050565b7f4e487b7100000000000000000000000000000000000000000000000000000000600052601160045260246000fd5b6000610d2882610aef565b91507fffffffffffffffffffffffffffffffffffffffffffffffffffffffffffffffff8203610d5a57610d59610cee565b5b600182019050919050565b7f4e487b7100000000000000000000000000000000000000000000000000000000600052602260045260246000fd5b60006002820490506001821680610dac57607f821691505b602082108103610dbf57610dbe610d65565b5b5091905056fea2646970667358221220ba87829d0d87fe7e0cca0fde2fb5f4f09ee11de5594e8a075a99573faf78775764736f6c634300080d0033",
  "immutableReferences": {},
  "source": "pragma solidity >=0.4.22 <0.9.0;\r\n\r\nimport \"../helpers/BaseStorage.sol\";\r\n\r\ncontract UserStorage is BaseStorage {\r\n    mapping(uint256 => Profile) public profiles;\r\n    mapping(address => uint256) public addresses;\r\n    mapping(bytes32 => uint256) public usernames;\r\n\r\n    struct Profile {\r\n        uint256 id;\r\n        bytes32 username;\r\n        bytes32 firstName;\r\n        bytes32 lastName;\r\n        string bio;\r\n        string gravatarEmail;\r\n        string profileHash;\r\n    }\r\n\r\n    uint256 latestUserId = 0;\r\n\r\n    function createUser(\r\n        address _address,\r\n        bytes32 _username,\r\n        bytes32 _firstName,\r\n        bytes32 _lastName,\r\n        string memory _bio,\r\n        string memory _gravatarEmail, \r\n        string memory _profileHash\r\n    ) public onlyController returns (uint256 _newUserId) {\r\n        latestUserId++;\r\n\r\n        profiles[latestUserId] = Profile(\r\n            latestUserId,\r\n            _username,\r\n            _firstName,\r\n            _lastName,\r\n            _bio,\r\n            _gravatarEmail, \r\n            _profileHash\r\n        );\r\n\r\n        addresses[_address] = latestUserId;\r\n        usernames[_username] = latestUserId;\r\n\r\n        return latestUserId;\r\n    }\r\n}\r\n",
  "sourcePath": "U:\\Ethereum\\ethegram\\contracts\\users\\UserStorage.sol",
  "compiler": {
    "name": "solc",
    "version": "0.8.13+commit.abaa5c0e.Emscripten.clang"
  },
  "schemaVersion": "3.4.6",
  "updatedAt": "2022-05-19T04:23:14.402Z",
  "networkType": "ethereum",
  "devdoc": {
    "kind": "dev",
    "methods": {},
    "version": 1
  },
  "userdoc": {
    "kind": "user",
    "methods": {},
    "version": 1
  }
}