{
  "contractName": "TweetStorage",
  "abi": [
    {
      "inputs": [],
      "name": "controllerAddr",
      "outputs": [
        {
          "internalType": "address",
          "name": "",
          "type": "address"
        }
      ],
      "stateMutability": "view",
      "type": "function",
      "constant": true
    },
    {
      "inputs": [],
      "name": "ownerAddr",
      "outputs": [
        {
          "internalType": "address",
          "name": "",
          "type": "address"
        }
      ],
      "stateMutability": "view",
      "type": "function",
      "constant": true
    },
    {
      "inputs": [
        {
          "internalType": "address",
          "name": "_controllerAddr",
          "type": "address"
        }
      ],
      "name": "setControllerAddr",
      "outputs": [],
      "stateMutability": "nonpayable",
      "type": "function"
    },
    {
      "inputs": [
        {
          "internalType": "address",
          "name": "_newOwner",
          "type": "address"
        }
      ],
      "name": "transferOwnership",
      "outputs": [],
      "stateMutability": "nonpayable",
      "type": "function"
    },
    {
      "inputs": [
        {
          "internalType": "uint256",
          "name": "",
          "type": "uint256"
        }
      ],
      "name": "tweetIds",
      "outputs": [
        {
          "internalType": "uint256",
          "name": "",
          "type": "uint256"
        }
      ],
      "stateMutability": "view",
      "type": "function",
      "constant": true
    },
    {
      "inputs": [
        {
          "internalType": "uint256",
          "name": "",
          "type": "uint256"
        }
      ],
      "name": "tweets",
      "outputs": [
        {
          "internalType": "uint256",
          "name": "id",
          "type": "uint256"
        },
        {
          "internalType": "string",
          "name": "text",
          "type": "string"
        },
        {
          "internalType": "uint256",
          "name": "userId",
          "type": "uint256"
        },
        {
          "internalType": "uint256",
          "name": "postedAt",
          "type": "uint256"
        },
        {
          "internalType": "string",
          "name": "postHash",
          "type": "string"
        }
      ],
      "stateMutability": "view",
      "type": "function",
      "constant": true
    },
    {
      "inputs": [
        {
          "internalType": "uint256",
          "name": "",
          "type": "uint256"
        },
        {
          "internalType": "uint256",
          "name": "",
          "type": "uint256"
        }
      ],
      "name": "userTweetIds",
      "outputs": [
        {
          "internalType": "uint256",
          "name": "",
          "type": "uint256"
        }
      ],
      "stateMutability": "view",
      "type": "function",
      "constant": true
    },
    {
      "inputs": [
        {
          "internalType": "uint256",
          "name": "_userId",
          "type": "uint256"
        },
        {
          "internalType": "string",
          "name": "_text",
          "type": "string"
        },
        {
          "internalType": "string",
          "name": "postHash",
          "type": "string"
        }
      ],
      "name": "createTweet",
      "outputs": [
        {
          "internalType": "uint256",
          "name": "",
          "type": "uint256"
        }
      ],
      "stateMutability": "nonpayable",
      "type": "function"
    },
    {
      "inputs": [
        {
          "internalType": "uint256",
          "name": "_userId",
          "type": "uint256"
        }
      ],
      "name": "getTweetIdsFromUser",
      "outputs": [
        {
          "internalType": "uint256[]",
          "name": "",
          "type": "uint256[]"
        }
      ],
      "stateMutability": "view",
      "type": "function",
      "constant": true
    },
    {
      "inputs": [],
      "name": "getNumTweets",
      "outputs": [
        {
          "internalType": "uint256",
          "name": "_numTweets",
          "type": "uint256"
        }
      ],
      "stateMutability": "view",
      "type": "function",
      "constant": true
    }
  ],
  "bytecode": "0x6080604052600060055534801561001557600080fd5b50336000806101000a81548173ffffffffffffffffffffffffffffffffffffffff021916908373ffffffffffffffffffffffffffffffffffffffff160217905550610e56806100656000396000f3fe608060405234801561001057600080fd5b506004361061009e5760003560e01c80639c675eaa116100665780639c675eaa1461017f578063e8d857b01461019d578063eb4fdc3f146101d1578063ee255c57146101ef578063f2fde38b1461020d5761009e565b806317edf66d146100a3578063317aae1b146100d35780633a2ad5fd146101035780636981fa7d1461013357806373c91c931461014f575b600080fd5b6100bd60048036038101906100b89190610863565b610229565b6040516100ca919061089f565b60405180910390f35b6100ed60048036038101906100e89190610863565b61024d565b6040516100fa9190610978565b60405180910390f35b61011d6004803603810190610118919061099a565b6102b8565b60405161012a919061089f565b60405180910390f35b61014d60048036038101906101489190610a38565b6102e9565b005b61016960048036038101906101649190610bab565b610385565b604051610176919061089f565b60405180910390f35b610187610505565b6040516101949190610c45565b60405180910390f35b6101b760048036038101906101b29190610863565b610529565b6040516101c8959493929190610ce8565b60405180910390f35b6101d961066f565b6040516101e6919061089f565b60405180910390f35b6101f761067c565b6040516102049190610c45565b60405180910390f35b61022760048036038101906102229190610a38565b6106a2565b005b6004818154811061023957600080fd5b906000526020600020016000915090505481565b6060600360008381526020019081526020016000208054806020026020016040519081016040528092919081815260200182805480156102ac57602002820191906000526020600020905b815481526020019060010190808311610298575b50505050509050919050565b600360205281600052604060002081815481106102d457600080fd5b90600052602060002001600091509150505481565b60008054906101000a900473ffffffffffffffffffffffffffffffffffffffff1673ffffffffffffffffffffffffffffffffffffffff163373ffffffffffffffffffffffffffffffffffffffff161461034157600080fd5b80600160006101000a81548173ffffffffffffffffffffffffffffffffffffffff021916908373ffffffffffffffffffffffffffffffffffffffff16021790555050565b6000600160009054906101000a900473ffffffffffffffffffffffffffffffffffffffff1673ffffffffffffffffffffffffffffffffffffffff163373ffffffffffffffffffffffffffffffffffffffff16146103e157600080fd5b600560008154809291906103f490610d78565b91905055506040518060a0016040528060055481526020018481526020018581526020014281526020018381525060026000600554815260200190815260200160002060008201518160000155602082015181600101908051906020019061045d929190610776565b506040820151816002015560608201518160030155608082015181600401908051906020019061048e929190610776565b509050506003600085815260200190815260200160002060055490806001815401808255809150506001900390600052602060002001600090919091909150556004600554908060018154018082558091505060019003906000526020600020016000909190919091505560055490509392505050565b60008054906101000a900473ffffffffffffffffffffffffffffffffffffffff1681565b600260205280600052604060002060009150905080600001549080600101805461055290610def565b80601f016020809104026020016040519081016040528092919081815260200182805461057e90610def565b80156105cb5780601f106105a0576101008083540402835291602001916105cb565b820191906000526020600020905b8154815290600101906020018083116105ae57829003601f168201915b5050505050908060020154908060030154908060040180546105ec90610def565b80601f016020809104026020016040519081016040528092919081815260200182805461061890610def565b80156106655780601f1061063a57610100808354040283529160200191610665565b820191906000526020600020905b81548152906001019060200180831161064857829003601f168201915b5050505050905085565b6000600480549050905090565b600160009054906101000a900473ffffffffffffffffffffffffffffffffffffffff1681565b60008054906101000a900473ffffffffffffffffffffffffffffffffffffffff1673ffffffffffffffffffffffffffffffffffffffff163373ffffffffffffffffffffffffffffffffffffffff16146106fa57600080fd5b600073ffffffffffffffffffffffffffffffffffffffff168173ffffffffffffffffffffffffffffffffffffffff160361073357600080fd5b806000806101000a81548173ffffffffffffffffffffffffffffffffffffffff021916908373ffffffffffffffffffffffffffffffffffffffff16021790555050565b82805461078290610def565b90600052602060002090601f0160209004810192826107a457600085556107eb565b82601f106107bd57805160ff19168380011785556107eb565b828001600101855582156107eb579182015b828111156107ea5782518255916020019190600101906107cf565b5b5090506107f891906107fc565b5090565b5b808211156108155760008160009055506001016107fd565b5090565b6000604051905090565b600080fd5b600080fd5b6000819050919050565b6108408161082d565b811461084b57600080fd5b50565b60008135905061085d81610837565b92915050565b60006020828403121561087957610878610823565b5b60006108878482850161084e565b91505092915050565b6108998161082d565b82525050565b60006020820190506108b46000830184610890565b92915050565b600081519050919050565b600082825260208201905092915050565b6000819050602082019050919050565b6108ef8161082d565b82525050565b600061090183836108e6565b60208301905092915050565b6000602082019050919050565b6000610925826108ba565b61092f81856108c5565b935061093a836108d6565b8060005b8381101561096b57815161095288826108f5565b975061095d8361090d565b92505060018101905061093e565b5085935050505092915050565b60006020820190508181036000830152610992818461091a565b905092915050565b600080604083850312156109b1576109b0610823565b5b60006109bf8582860161084e565b92505060206109d08582860161084e565b9150509250929050565b600073ffffffffffffffffffffffffffffffffffffffff82169050919050565b6000610a05826109da565b9050919050565b610a15816109fa565b8114610a2057600080fd5b50565b600081359050610a3281610a0c565b92915050565b600060208284031215610a4e57610a4d610823565b5b6000610a5c84828501610a23565b91505092915050565b600080fd5b600080fd5b6000601f19601f8301169050919050565b7f4e487b7100000000000000000000000000000000000000000000000000000000600052604160045260246000fd5b610ab882610a6f565b810181811067ffffffffffffffff82111715610ad757610ad6610a80565b5b80604052505050565b6000610aea610819565b9050610af68282610aaf565b919050565b600067ffffffffffffffff821115610b1657610b15610a80565b5b610b1f82610a6f565b9050602081019050919050565b82818337600083830152505050565b6000610b4e610b4984610afb565b610ae0565b905082815260208101848484011115610b6a57610b69610a6a565b5b610b75848285610b2c565b509392505050565b600082601f830112610b9257610b91610a65565b5b8135610ba2848260208601610b3b565b91505092915050565b600080600060608486031215610bc457610bc3610823565b5b6000610bd28682870161084e565b935050602084013567ffffffffffffffff811115610bf357610bf2610828565b5b610bff86828701610b7d565b925050604084013567ffffffffffffffff811115610c2057610c1f610828565b5b610c2c86828701610b7d565b9150509250925092565b610c3f816109fa565b82525050565b6000602082019050610c5a6000830184610c36565b92915050565b600081519050919050565b600082825260208201905092915050565b60005b83811015610c9a578082015181840152602081019050610c7f565b83811115610ca9576000848401525b50505050565b6000610cba82610c60565b610cc48185610c6b565b9350610cd4818560208601610c7c565b610cdd81610a6f565b840191505092915050565b600060a082019050610cfd6000830188610890565b8181036020830152610d0f8187610caf565b9050610d1e6040830186610890565b610d2b6060830185610890565b8181036080830152610d3d8184610caf565b90509695505050505050565b7f4e487b7100000000000000000000000000000000000000000000000000000000600052601160045260246000fd5b6000610d838261082d565b91507fffffffffffffffffffffffffffffffffffffffffffffffffffffffffffffffff8203610db557610db4610d49565b5b600182019050919050565b7f4e487b7100000000000000000000000000000000000000000000000000000000600052602260045260246000fd5b60006002820490506001821680610e0757607f821691505b602082108103610e1a57610e19610dc0565b5b5091905056fea264697066735822122056adf1b3a89a91326ca868e91885a558c68ebc2ab1ca07c01c33229a8eb0480464736f6c634300080d0033",
  "immutableReferences": {},
  "source": "pragma solidity >=0.4.22 <0.9.0;\r\n\r\nimport \"../helpers/BaseStorage.sol\";\r\n\r\ncontract TweetStorage is BaseStorage {\r\n    mapping(uint256 => Tweet) public tweets;\r\n    mapping(uint256 => uint256[]) public userTweetIds;\r\n    uint256[] public tweetIds;\r\n\r\n    struct Tweet {\r\n        uint256 id;\r\n        string text;\r\n        uint256 userId;\r\n        uint256 postedAt;\r\n        string postHash;\r\n    }\r\n\r\n    uint256 latestTweetId = 0;\r\n\r\n    function createTweet(\r\n        uint256 _userId,\r\n        string memory _text,\r\n        string memory postHash\r\n    ) public onlyController returns (uint256) {\r\n        latestTweetId++;\r\n\r\n        tweets[latestTweetId] = Tweet(\r\n            latestTweetId,\r\n            _text,\r\n            _userId,\r\n            block.timestamp,\r\n            postHash\r\n        );\r\n        userTweetIds[_userId].push(latestTweetId);\r\n        tweetIds.push(latestTweetId);\r\n\r\n        return latestTweetId;\r\n    }\r\n\r\n    function getTweetIdsFromUser(uint256 _userId)\r\n        public\r\n        view\r\n        returns (uint256[] memory)\r\n    {\r\n        return userTweetIds[_userId];\r\n    }\r\n\r\n    function getNumTweets() public view returns (uint256 _numTweets) {\r\n        return tweetIds.length;\r\n    }\r\n}\r\n",
  "sourcePath": "U:\\Ethereum\\ethegram\\contracts\\tweets\\TweetStorage.sol",
  "compiler": {
    "name": "solc",
    "version": "0.8.13+commit.abaa5c0e.Emscripten.clang"
  },
  "schemaVersion": "3.4.6",
  "updatedAt": "2022-05-19T04:23:21.287Z",
  "networkType": "ethereum",
  "devdoc": {
    "kind": "dev",
    "methods": {},
    "version": 1
  },
  "userdoc": {
    "kind": "user",
    "methods": {},
    "version": 1
  }
}