{
  "contractName": "TweetController",
  "abi": [
    {
      "inputs": [],
      "name": "ownerAddr",
      "outputs": [
        {
          "internalType": "address",
          "name": "",
          "type": "address"
        }
      ],
      "stateMutability": "view",
      "type": "function",
      "constant": true
    },
    {
      "inputs": [
        {
          "internalType": "address",
          "name": "_managerAddr",
          "type": "address"
        }
      ],
      "name": "setManagerAddr",
      "outputs": [],
      "stateMutability": "nonpayable",
      "type": "function"
    },
    {
      "inputs": [
        {
          "internalType": "address",
          "name": "_newOwner",
          "type": "address"
        }
      ],
      "name": "transferOwnership",
      "outputs": [],
      "stateMutability": "nonpayable",
      "type": "function"
    },
    {
      "inputs": [
        {
          "internalType": "string",
          "name": "_text",
          "type": "string"
        },
        {
          "internalType": "string",
          "name": "_postHash",
          "type": "string"
        }
      ],
      "name": "createTweet",
      "outputs": [
        {
          "internalType": "uint256",
          "name": "",
          "type": "uint256"
        }
      ],
      "stateMutability": "nonpayable",
      "type": "function"
    }
  ],
  "bytecode": "0x608060405234801561001057600080fd5b50336000806101000a81548173ffffffffffffffffffffffffffffffffffffffff021916908373ffffffffffffffffffffffffffffffffffffffff1602179055506109df806100606000396000f3fe608060405234801561001057600080fd5b506004361061004c5760003560e01c80637978b231146100515780638cd14d301461006d5780639c675eaa1461009d578063f2fde38b146100bb575b600080fd5b61006b60048036038101906100669190610520565b6100d7565b005b61008760048036038101906100829190610693565b610173565b6040516100949190610724565b60405180910390f35b6100a56103b6565b6040516100b2919061074e565b60405180910390f35b6100d560048036038101906100d09190610520565b6103da565b005b60008054906101000a900473ffffffffffffffffffffffffffffffffffffffff1673ffffffffffffffffffffffffffffffffffffffff163373ffffffffffffffffffffffffffffffffffffffff161461012f57600080fd5b80600160006101000a81548173ffffffffffffffffffffffffffffffffffffffff021916908373ffffffffffffffffffffffffffffffffffffffff16021790555050565b600080600160009054906101000a900473ffffffffffffffffffffffffffffffffffffffff16905060008173ffffffffffffffffffffffffffffffffffffffff1663bf40fac16040518163ffffffff1660e01b81526004016101d4906107c6565b602060405180830381865afa1580156101f1573d6000803e3d6000fd5b505050506040513d601f19601f8201168201806040525081019061021591906107fb565b9050600081905060008173ffffffffffffffffffffffffffffffffffffffff166382d38954336040518263ffffffff1660e01b8152600401610257919061074e565b602060405180830381865afa158015610274573d6000803e3d6000fd5b505050506040513d601f19601f820116820180604052508101906102989190610854565b9050600081036102a757600080fd5b60008473ffffffffffffffffffffffffffffffffffffffff1663bf40fac16040518163ffffffff1660e01b81526004016102e0906108cd565b602060405180830381865afa1580156102fd573d6000803e3d6000fd5b505050506040513d601f19601f8201168201806040525081019061032191906107fb565b905060008190508073ffffffffffffffffffffffffffffffffffffffff166373c91c93848b8b6040518463ffffffff1660e01b815260040161036593929190610964565b6020604051808303816000875af1158015610384573d6000803e3d6000fd5b505050506040513d601f19601f820116820180604052508101906103a89190610854565b965050505050505092915050565b60008054906101000a900473ffffffffffffffffffffffffffffffffffffffff1681565b60008054906101000a900473ffffffffffffffffffffffffffffffffffffffff1673ffffffffffffffffffffffffffffffffffffffff163373ffffffffffffffffffffffffffffffffffffffff161461043257600080fd5b600073ffffffffffffffffffffffffffffffffffffffff168173ffffffffffffffffffffffffffffffffffffffff160361046b57600080fd5b806000806101000a81548173ffffffffffffffffffffffffffffffffffffffff021916908373ffffffffffffffffffffffffffffffffffffffff16021790555050565b6000604051905090565b600080fd5b600080fd5b600073ffffffffffffffffffffffffffffffffffffffff82169050919050565b60006104ed826104c2565b9050919050565b6104fd816104e2565b811461050857600080fd5b50565b60008135905061051a816104f4565b92915050565b600060208284031215610536576105356104b8565b5b60006105448482850161050b565b91505092915050565b600080fd5b600080fd5b6000601f19601f8301169050919050565b7f4e487b7100000000000000000000000000000000000000000000000000000000600052604160045260246000fd5b6105a082610557565b810181811067ffffffffffffffff821117156105bf576105be610568565b5b80604052505050565b60006105d26104ae565b90506105de8282610597565b919050565b600067ffffffffffffffff8211156105fe576105fd610568565b5b61060782610557565b9050602081019050919050565b82818337600083830152505050565b6000610636610631846105e3565b6105c8565b90508281526020810184848401111561065257610651610552565b5b61065d848285610614565b509392505050565b600082601f83011261067a5761067961054d565b5b813561068a848260208601610623565b91505092915050565b600080604083850312156106aa576106a96104b8565b5b600083013567ffffffffffffffff8111156106c8576106c76104bd565b5b6106d485828601610665565b925050602083013567ffffffffffffffff8111156106f5576106f46104bd565b5b61070185828601610665565b9150509250929050565b6000819050919050565b61071e8161070b565b82525050565b60006020820190506107396000830184610715565b92915050565b610748816104e2565b82525050565b6000602082019050610763600083018461073f565b92915050565b600082825260208201905092915050565b7f5573657253746f72616765000000000000000000000000000000000000000000600082015250565b60006107b0600b83610769565b91506107bb8261077a565b602082019050919050565b600060208201905081810360008301526107df816107a3565b9050919050565b6000815190506107f5816104f4565b92915050565b600060208284031215610811576108106104b8565b5b600061081f848285016107e6565b91505092915050565b6108318161070b565b811461083c57600080fd5b50565b60008151905061084e81610828565b92915050565b60006020828403121561086a576108696104b8565b5b60006108788482850161083f565b91505092915050565b7f547765657453746f726167650000000000000000000000000000000000000000600082015250565b60006108b7600c83610769565b91506108c282610881565b602082019050919050565b600060208201905081810360008301526108e6816108aa565b9050919050565b600081519050919050565b60005b838110156109165780820151818401526020810190506108fb565b83811115610925576000848401525b50505050565b6000610936826108ed565b6109408185610769565b93506109508185602086016108f8565b61095981610557565b840191505092915050565b60006060820190506109796000830186610715565b818103602083015261098b818561092b565b9050818103604083015261099f818461092b565b905094935050505056fea2646970667358221220812b26247c6e1403369b6deffc0fb44acf90f6c1afa66841d32184e7d8712a3964736f6c634300080d0033",
  "immutableReferences": {},
  "source": "pragma solidity >=0.4.22 <0.9.0;\r\n\r\nimport \"../helpers/BaseController.sol\";\r\nimport \"../ContractManager.sol\";\r\nimport \"./TweetStorage.sol\";\r\nimport \"../users/UserStorage.sol\";\r\n\r\ncontract TweetController is BaseController {\r\n    function createTweet(string memory _text, string memory _postHash)\r\n        public\r\n        returns (uint256)\r\n    {\r\n        ContractManager _manager = ContractManager(managerAddr);\r\n\r\n        address _userStorageAddr = _manager.getAddress(\"UserStorage\");\r\n        UserStorage _userStorage = UserStorage(_userStorageAddr);\r\n        uint256 _userId = _userStorage.addresses(msg.sender);\r\n\r\n        require(_userId != 0);\r\n\r\n        address _tweetStorageAddr = _manager.getAddress(\"TweetStorage\");\r\n        TweetStorage _tweetStorage = TweetStorage(_tweetStorageAddr);\r\n\r\n        return _tweetStorage.createTweet(_userId, _text, _postHash);\r\n    }\r\n}\r\n",
  "sourcePath": "U:\\Ethereum\\ethegram\\contracts\\tweets\\TweetController.sol",
  "compiler": {
    "name": "solc",
    "version": "0.8.13+commit.abaa5c0e.Emscripten.clang"
  },
  "schemaVersion": "3.4.6",
  "updatedAt": "2022-05-19T04:23:21.260Z",
  "networkType": "ethereum",
  "devdoc": {
    "kind": "dev",
    "methods": {},
    "version": 1
  },
  "userdoc": {
    "kind": "user",
    "methods": {},
    "version": 1
  }
}