{
  "contractName": "TweetController",
  "abi": [
    {
      "inputs": [],
      "name": "ownerAddr",
      "outputs": [
        {
          "internalType": "address",
          "name": "",
          "type": "address"
        }
      ],
      "stateMutability": "view",
      "type": "function",
      "constant": true
    },
    {
      "inputs": [
        {
          "internalType": "address",
          "name": "_managerAddr",
          "type": "address"
        }
      ],
      "name": "setManagerAddr",
      "outputs": [],
      "stateMutability": "nonpayable",
      "type": "function"
    },
    {
      "inputs": [
        {
          "internalType": "address",
          "name": "_newOwner",
          "type": "address"
        }
      ],
      "name": "transferOwnership",
      "outputs": [],
      "stateMutability": "nonpayable",
      "type": "function"
    },
    {
      "inputs": [
        {
          "internalType": "string",
          "name": "_text",
          "type": "string"
        }
      ],
      "name": "createTweet",
      "outputs": [
        {
          "internalType": "uint256",
          "name": "",
          "type": "uint256"
        }
      ],
      "stateMutability": "nonpayable",
      "type": "function"
    }
  ],
  "bytecode": "0x608060405234801561001057600080fd5b50336000806101000a81548173ffffffffffffffffffffffffffffffffffffffff021916908373ffffffffffffffffffffffffffffffffffffffff160217905550610998806100606000396000f3fe608060405234801561001057600080fd5b506004361061004c5760003560e01c80637978b231146100515780637c9cd2bc1461006d5780639c675eaa1461009d578063f2fde38b146100bb575b600080fd5b61006b6004803603810190610066919061051d565b6100d7565b005b61008760048036038101906100829190610690565b610173565b60405161009491906106f2565b60405180910390f35b6100a56103b3565b6040516100b2919061071c565b60405180910390f35b6100d560048036038101906100d0919061051d565b6103d7565b005b60008054906101000a900473ffffffffffffffffffffffffffffffffffffffff1673ffffffffffffffffffffffffffffffffffffffff163373ffffffffffffffffffffffffffffffffffffffff161461012f57600080fd5b80600160006101000a81548173ffffffffffffffffffffffffffffffffffffffff021916908373ffffffffffffffffffffffffffffffffffffffff16021790555050565b600080600160009054906101000a900473ffffffffffffffffffffffffffffffffffffffff16905060008173ffffffffffffffffffffffffffffffffffffffff1663bf40fac16040518163ffffffff1660e01b81526004016101d490610794565b602060405180830381865afa1580156101f1573d6000803e3d6000fd5b505050506040513d601f19601f8201168201806040525081019061021591906107c9565b9050600081905060008173ffffffffffffffffffffffffffffffffffffffff166382d38954336040518263ffffffff1660e01b8152600401610257919061071c565b602060405180830381865afa158015610274573d6000803e3d6000fd5b505050506040513d601f19601f820116820180604052508101906102989190610822565b9050600081036102a757600080fd5b60008473ffffffffffffffffffffffffffffffffffffffff1663bf40fac16040518163ffffffff1660e01b81526004016102e09061089b565b602060405180830381865afa1580156102fd573d6000803e3d6000fd5b505050506040513d601f19601f8201168201806040525081019061032191906107c9565b905060008190508073ffffffffffffffffffffffffffffffffffffffff16637cc82f20848a6040518363ffffffff1660e01b8152600401610363929190610932565b6020604051808303816000875af1158015610382573d6000803e3d6000fd5b505050506040513d601f19601f820116820180604052508101906103a69190610822565b9650505050505050919050565b60008054906101000a900473ffffffffffffffffffffffffffffffffffffffff1681565b60008054906101000a900473ffffffffffffffffffffffffffffffffffffffff1673ffffffffffffffffffffffffffffffffffffffff163373ffffffffffffffffffffffffffffffffffffffff161461042f57600080fd5b600073ffffffffffffffffffffffffffffffffffffffff168173ffffffffffffffffffffffffffffffffffffffff160361046857600080fd5b806000806101000a81548173ffffffffffffffffffffffffffffffffffffffff021916908373ffffffffffffffffffffffffffffffffffffffff16021790555050565b6000604051905090565b600080fd5b600080fd5b600073ffffffffffffffffffffffffffffffffffffffff82169050919050565b60006104ea826104bf565b9050919050565b6104fa816104df565b811461050557600080fd5b50565b600081359050610517816104f1565b92915050565b600060208284031215610533576105326104b5565b5b600061054184828501610508565b91505092915050565b600080fd5b600080fd5b6000601f19601f8301169050919050565b7f4e487b7100000000000000000000000000000000000000000000000000000000600052604160045260246000fd5b61059d82610554565b810181811067ffffffffffffffff821117156105bc576105bb610565565b5b80604052505050565b60006105cf6104ab565b90506105db8282610594565b919050565b600067ffffffffffffffff8211156105fb576105fa610565565b5b61060482610554565b9050602081019050919050565b82818337600083830152505050565b600061063361062e846105e0565b6105c5565b90508281526020810184848401111561064f5761064e61054f565b5b61065a848285610611565b509392505050565b600082601f8301126106775761067661054a565b5b8135610687848260208601610620565b91505092915050565b6000602082840312156106a6576106a56104b5565b5b600082013567ffffffffffffffff8111156106c4576106c36104ba565b5b6106d084828501610662565b91505092915050565b6000819050919050565b6106ec816106d9565b82525050565b600060208201905061070760008301846106e3565b92915050565b610716816104df565b82525050565b6000602082019050610731600083018461070d565b92915050565b600082825260208201905092915050565b7f5573657253746f72616765000000000000000000000000000000000000000000600082015250565b600061077e600b83610737565b915061078982610748565b602082019050919050565b600060208201905081810360008301526107ad81610771565b9050919050565b6000815190506107c3816104f1565b92915050565b6000602082840312156107df576107de6104b5565b5b60006107ed848285016107b4565b91505092915050565b6107ff816106d9565b811461080a57600080fd5b50565b60008151905061081c816107f6565b92915050565b600060208284031215610838576108376104b5565b5b60006108468482850161080d565b91505092915050565b7f547765657453746f726167650000000000000000000000000000000000000000600082015250565b6000610885600c83610737565b91506108908261084f565b602082019050919050565b600060208201905081810360008301526108b481610878565b9050919050565b600081519050919050565b60005b838110156108e45780820151818401526020810190506108c9565b838111156108f3576000848401525b50505050565b6000610904826108bb565b61090e8185610737565b935061091e8185602086016108c6565b61092781610554565b840191505092915050565b600060408201905061094760008301856106e3565b818103602083015261095981846108f9565b9050939250505056fea26469706673582212208e0bc305ff20cad6e8c01b3df6d40b79acc723eaa1ee3ba74798e74a020644d164736f6c634300080d0033",
  "immutableReferences": {},
  "source": "pragma solidity >=0.4.22 <0.9.0;\r\n\r\nimport \"../helpers/BaseController.sol\";\r\nimport \"../ContractManager.sol\";\r\nimport \"./TweetStorage.sol\";\r\nimport \"../users/UserStorage.sol\";\r\n\r\ncontract TweetController is BaseController {\r\n    function createTweet(string memory _text) public returns (uint256) {\r\n        ContractManager _manager = ContractManager(managerAddr);\r\n\r\n        address _userStorageAddr = _manager.getAddress(\"UserStorage\");\r\n        UserStorage _userStorage = UserStorage(_userStorageAddr);\r\n        uint256 _userId = _userStorage.addresses(msg.sender);\r\n\r\n        require(_userId != 0);\r\n\r\n        address _tweetStorageAddr = _manager.getAddress(\"TweetStorage\");\r\n        TweetStorage _tweetStorage = TweetStorage(_tweetStorageAddr);\r\n\r\n        return _tweetStorage.createTweet(_userId, _text);\r\n    }\r\n}\r\n",
  "sourcePath": "U:\\Ethereum\\ethegram\\contracts\\tweets\\TweetController.sol",
  "compiler": {
    "name": "solc",
    "version": "0.8.13+commit.abaa5c0e.Emscripten.clang"
  },
  "schemaVersion": "3.4.6",
  "updatedAt": "2022-05-03T08:51:09.920Z",
  "networkType": "ethereum",
  "devdoc": {
    "kind": "dev",
    "methods": {},
    "version": 1
  },
  "userdoc": {
    "kind": "user",
    "methods": {},
    "version": 1
  }
}