{
  "contractName": "TweetStorage",
  "abi": [
    {
      "inputs": [],
      "name": "controllerAddr",
      "outputs": [
        {
          "internalType": "address",
          "name": "",
          "type": "address"
        }
      ],
      "stateMutability": "view",
      "type": "function",
      "constant": true
    },
    {
      "inputs": [],
      "name": "ownerAddr",
      "outputs": [
        {
          "internalType": "address",
          "name": "",
          "type": "address"
        }
      ],
      "stateMutability": "view",
      "type": "function",
      "constant": true
    },
    {
      "inputs": [
        {
          "internalType": "address",
          "name": "_controllerAddr",
          "type": "address"
        }
      ],
      "name": "setControllerAddr",
      "outputs": [],
      "stateMutability": "nonpayable",
      "type": "function"
    },
    {
      "inputs": [
        {
          "internalType": "address",
          "name": "_newOwner",
          "type": "address"
        }
      ],
      "name": "transferOwnership",
      "outputs": [],
      "stateMutability": "nonpayable",
      "type": "function"
    },
    {
      "inputs": [
        {
          "internalType": "uint256",
          "name": "",
          "type": "uint256"
        }
      ],
      "name": "tweetIds",
      "outputs": [
        {
          "internalType": "uint256",
          "name": "",
          "type": "uint256"
        }
      ],
      "stateMutability": "view",
      "type": "function",
      "constant": true
    },
    {
      "inputs": [
        {
          "internalType": "uint256",
          "name": "",
          "type": "uint256"
        }
      ],
      "name": "tweets",
      "outputs": [
        {
          "internalType": "uint256",
          "name": "id",
          "type": "uint256"
        },
        {
          "internalType": "string",
          "name": "text",
          "type": "string"
        },
        {
          "internalType": "uint256",
          "name": "userId",
          "type": "uint256"
        },
        {
          "internalType": "uint256",
          "name": "postedAt",
          "type": "uint256"
        }
      ],
      "stateMutability": "view",
      "type": "function",
      "constant": true
    },
    {
      "inputs": [
        {
          "internalType": "uint256",
          "name": "",
          "type": "uint256"
        },
        {
          "internalType": "uint256",
          "name": "",
          "type": "uint256"
        }
      ],
      "name": "userTweetIds",
      "outputs": [
        {
          "internalType": "uint256",
          "name": "",
          "type": "uint256"
        }
      ],
      "stateMutability": "view",
      "type": "function",
      "constant": true
    },
    {
      "inputs": [
        {
          "internalType": "uint256",
          "name": "_userId",
          "type": "uint256"
        },
        {
          "internalType": "string",
          "name": "_text",
          "type": "string"
        }
      ],
      "name": "createTweet",
      "outputs": [
        {
          "internalType": "uint256",
          "name": "",
          "type": "uint256"
        }
      ],
      "stateMutability": "nonpayable",
      "type": "function"
    },
    {
      "inputs": [
        {
          "internalType": "uint256",
          "name": "_userId",
          "type": "uint256"
        }
      ],
      "name": "getTweetIdsFromUser",
      "outputs": [
        {
          "internalType": "uint256[]",
          "name": "",
          "type": "uint256[]"
        }
      ],
      "stateMutability": "view",
      "type": "function",
      "constant": true
    },
    {
      "inputs": [],
      "name": "getNumTweets",
      "outputs": [
        {
          "internalType": "uint256",
          "name": "_numTweets",
          "type": "uint256"
        }
      ],
      "stateMutability": "view",
      "type": "function",
      "constant": true
    }
  ],
  "bytecode": "0x6080604052600060055534801561001557600080fd5b50336000806101000a81548173ffffffffffffffffffffffffffffffffffffffff021916908373ffffffffffffffffffffffffffffffffffffffff160217905550610d5f806100656000396000f3fe608060405234801561001057600080fd5b506004361061009e5760003560e01c80639c675eaa116100665780639c675eaa1461017f578063e8d857b01461019d578063eb4fdc3f146101d0578063ee255c57146101ee578063f2fde38b1461020c5761009e565b806317edf66d146100a3578063317aae1b146100d35780633a2ad5fd146101035780636981fa7d146101335780637cc82f201461014f575b600080fd5b6100bd60048036038101906100b891906107b0565b610228565b6040516100ca91906107ec565b60405180910390f35b6100ed60048036038101906100e891906107b0565b61024c565b6040516100fa91906108c5565b60405180910390f35b61011d600480360381019061011891906108e7565b6102b7565b60405161012a91906107ec565b60405180910390f35b61014d60048036038101906101489190610985565b6102e8565b005b61016960048036038101906101649190610af8565b610384565b60405161017691906107ec565b60405180910390f35b6101876104e0565b6040516101949190610b63565b60405180910390f35b6101b760048036038101906101b291906107b0565b610504565b6040516101c79493929190610c06565b60405180910390f35b6101d86105bc565b6040516101e591906107ec565b60405180910390f35b6101f66105c9565b6040516102039190610b63565b60405180910390f35b61022660048036038101906102219190610985565b6105ef565b005b6004818154811061023857600080fd5b906000526020600020016000915090505481565b6060600360008381526020019081526020016000208054806020026020016040519081016040528092919081815260200182805480156102ab57602002820191906000526020600020905b815481526020019060010190808311610297575b50505050509050919050565b600360205281600052604060002081815481106102d357600080fd5b90600052602060002001600091509150505481565b60008054906101000a900473ffffffffffffffffffffffffffffffffffffffff1673ffffffffffffffffffffffffffffffffffffffff163373ffffffffffffffffffffffffffffffffffffffff161461034057600080fd5b80600160006101000a81548173ffffffffffffffffffffffffffffffffffffffff021916908373ffffffffffffffffffffffffffffffffffffffff16021790555050565b6000600160009054906101000a900473ffffffffffffffffffffffffffffffffffffffff1673ffffffffffffffffffffffffffffffffffffffff163373ffffffffffffffffffffffffffffffffffffffff16146103e057600080fd5b600560008154809291906103f390610c81565b919050555060405180608001604052806005548152602001838152602001848152602001428152506002600060055481526020019081526020016000206000820151816000015560208201518160010190805190602001906104569291906106c3565b50604082015181600201556060820151816003015590505060036000848152602001908152602001600020600554908060018154018082558091505060019003906000526020600020016000909190919091505560046005549080600181540180825580915050600190039060005260206000200160009091909190915055600554905092915050565b60008054906101000a900473ffffffffffffffffffffffffffffffffffffffff1681565b600260205280600052604060002060009150905080600001549080600101805461052d90610cf8565b80601f016020809104026020016040519081016040528092919081815260200182805461055990610cf8565b80156105a65780601f1061057b576101008083540402835291602001916105a6565b820191906000526020600020905b81548152906001019060200180831161058957829003601f168201915b5050505050908060020154908060030154905084565b6000600480549050905090565b600160009054906101000a900473ffffffffffffffffffffffffffffffffffffffff1681565b60008054906101000a900473ffffffffffffffffffffffffffffffffffffffff1673ffffffffffffffffffffffffffffffffffffffff163373ffffffffffffffffffffffffffffffffffffffff161461064757600080fd5b600073ffffffffffffffffffffffffffffffffffffffff168173ffffffffffffffffffffffffffffffffffffffff160361068057600080fd5b806000806101000a81548173ffffffffffffffffffffffffffffffffffffffff021916908373ffffffffffffffffffffffffffffffffffffffff16021790555050565b8280546106cf90610cf8565b90600052602060002090601f0160209004810192826106f15760008555610738565b82601f1061070a57805160ff1916838001178555610738565b82800160010185558215610738579182015b8281111561073757825182559160200191906001019061071c565b5b5090506107459190610749565b5090565b5b8082111561076257600081600090555060010161074a565b5090565b6000604051905090565b600080fd5b600080fd5b6000819050919050565b61078d8161077a565b811461079857600080fd5b50565b6000813590506107aa81610784565b92915050565b6000602082840312156107c6576107c5610770565b5b60006107d48482850161079b565b91505092915050565b6107e68161077a565b82525050565b600060208201905061080160008301846107dd565b92915050565b600081519050919050565b600082825260208201905092915050565b6000819050602082019050919050565b61083c8161077a565b82525050565b600061084e8383610833565b60208301905092915050565b6000602082019050919050565b600061087282610807565b61087c8185610812565b935061088783610823565b8060005b838110156108b857815161089f8882610842565b97506108aa8361085a565b92505060018101905061088b565b5085935050505092915050565b600060208201905081810360008301526108df8184610867565b905092915050565b600080604083850312156108fe576108fd610770565b5b600061090c8582860161079b565b925050602061091d8582860161079b565b9150509250929050565b600073ffffffffffffffffffffffffffffffffffffffff82169050919050565b600061095282610927565b9050919050565b61096281610947565b811461096d57600080fd5b50565b60008135905061097f81610959565b92915050565b60006020828403121561099b5761099a610770565b5b60006109a984828501610970565b91505092915050565b600080fd5b600080fd5b6000601f19601f8301169050919050565b7f4e487b7100000000000000000000000000000000000000000000000000000000600052604160045260246000fd5b610a05826109bc565b810181811067ffffffffffffffff82111715610a2457610a236109cd565b5b80604052505050565b6000610a37610766565b9050610a4382826109fc565b919050565b600067ffffffffffffffff821115610a6357610a626109cd565b5b610a6c826109bc565b9050602081019050919050565b82818337600083830152505050565b6000610a9b610a9684610a48565b610a2d565b905082815260208101848484011115610ab757610ab66109b7565b5b610ac2848285610a79565b509392505050565b600082601f830112610adf57610ade6109b2565b5b8135610aef848260208601610a88565b91505092915050565b60008060408385031215610b0f57610b0e610770565b5b6000610b1d8582860161079b565b925050602083013567ffffffffffffffff811115610b3e57610b3d610775565b5b610b4a85828601610aca565b9150509250929050565b610b5d81610947565b82525050565b6000602082019050610b786000830184610b54565b92915050565b600081519050919050565b600082825260208201905092915050565b60005b83811015610bb8578082015181840152602081019050610b9d565b83811115610bc7576000848401525b50505050565b6000610bd882610b7e565b610be28185610b89565b9350610bf2818560208601610b9a565b610bfb816109bc565b840191505092915050565b6000608082019050610c1b60008301876107dd565b8181036020830152610c2d8186610bcd565b9050610c3c60408301856107dd565b610c4960608301846107dd565b95945050505050565b7f4e487b7100000000000000000000000000000000000000000000000000000000600052601160045260246000fd5b6000610c8c8261077a565b91507fffffffffffffffffffffffffffffffffffffffffffffffffffffffffffffffff8203610cbe57610cbd610c52565b5b600182019050919050565b7f4e487b7100000000000000000000000000000000000000000000000000000000600052602260045260246000fd5b60006002820490506001821680610d1057607f821691505b602082108103610d2357610d22610cc9565b5b5091905056fea2646970667358221220acce55cfbc69c980e11bab9b7c530abae8f3843c65e56980cbe0086a11c487ad64736f6c634300080d0033",
  "immutableReferences": {},
  "source": "pragma solidity >=0.4.22 <0.9.0;\r\n\r\nimport \"../helpers/BaseStorage.sol\";\r\n\r\ncontract TweetStorage is BaseStorage {\r\n    mapping(uint256 => Tweet) public tweets;\r\n    mapping(uint256 => uint256[]) public userTweetIds;\r\n    uint256[] public tweetIds;\r\n\r\n    struct Tweet {\r\n        uint256 id;\r\n        string text;\r\n        uint256 userId;\r\n        uint256 postedAt;\r\n    }\r\n\r\n    uint256 latestTweetId = 0;\r\n\r\n    function createTweet(uint256 _userId, string memory _text)\r\n        public\r\n        onlyController\r\n        returns (uint256)\r\n    {\r\n        latestTweetId++;\r\n\r\n        tweets[latestTweetId] = Tweet(\r\n            latestTweetId,\r\n            _text,\r\n            _userId,\r\n            block.timestamp\r\n        );\r\n        userTweetIds[_userId].push(latestTweetId);\r\n        tweetIds.push(latestTweetId);\r\n\r\n        return latestTweetId;\r\n    }\r\n\r\n    function getTweetIdsFromUser(uint256 _userId)\r\n        public\r\n        view\r\n        returns (uint256[] memory)\r\n    {\r\n        return userTweetIds[_userId];\r\n    }\r\n\r\n    function getNumTweets() public view returns (uint256 _numTweets) {\r\n        return tweetIds.length;\r\n    }\r\n}\r\n",
  "sourcePath": "U:\\Ethereum\\ethegram\\contracts\\tweets\\TweetStorage.sol",
  "compiler": {
    "name": "solc",
    "version": "0.8.13+commit.abaa5c0e.Emscripten.clang"
  },
  "schemaVersion": "3.4.6",
  "updatedAt": "2022-05-03T08:51:09.926Z",
  "networkType": "ethereum",
  "devdoc": {
    "kind": "dev",
    "methods": {},
    "version": 1
  },
  "userdoc": {
    "kind": "user",
    "methods": {},
    "version": 1
  }
}